:100000000C9434000C9451000C9451000C94510049
:100010000C9451000C9451000C9451000C9451001C
:100020000C9451000C9451000C9451000C9451000C
:100030000C9451000C9451000C9451000C945100FC
:100040000C94BA030C9451000C9451000C94510080
:100050000C9451000C9451000C9451000C945100DC
:100060000C944E010C94510011241FBECFEFD4E02C
:10007000DEBFCDBF11E0A0E0B1E0EAE6FAE002C0E9
:1000800005900D92A430B107D9F711E0A4E0B1E0DA
:1000900001C01D92AA3BB107E1F70E943C040C94F9
:1000A00033050C94000091E090930B0180930801BC
:1000B0001092090110920A01089590910A0190325C
:1000C00068F490910901E92FF0E0E656FE4F808335
:1000D000892F8F5F8093090180930A010895809191
:1000E000070190910601891B089590910601809166
:1000F0000701981710F080E00895E92FF0E0E65826
:10010000FE4F80819F5F90930601089510920C012D
:10011000449A459AE9EBF0E080818E7F808380816C
:100120008D7F808388E48093B80085E48093BC0051
:100130000895109206011092070110920901109281
:100140000A010E9486000895413210F040E02FC05D
:1001500090910C019923E1F791E090930C019FEFAE
:100160009093770110923201942F91509093330124
:10017000880F816080930D0185EE8093BC00809193
:100180000C018130E1F380913201841710F4409129
:10019000320180E090E009C0FB01E80FF91FDC01AB
:1001A000AE5EBE4F2C91208301968417A8F3842F56
:1001B0000895462F613208F040E26AE771E00E943C
:1001C000A40010920601809307010895413210F0B7
:1001D00081E0089590910C019923E1F792E09093CA
:1001E0000C019FEF909377011092320140933301FD
:1001F000DB01E2E1F1E050E04E0F5F1F02C09D9194
:100200009193E417F507D9F790E0880F991F809331
:100210000D0185EE8093BC00222321F080910C011A
:100220008230E1F3809177018F3F11F480E00895EF
:1002300080917701803211F482E0089580917701F6
:10024000803311F084E0089583E0089580910801DF
:100250006AE971E040910A0121E00E94E6001092F3
:10026000090110920A0110920B010895882311F0E0
:1002700085EC01C085E88093BC00089585ED8093EE
:10028000BC008091BC0084FDFCCF10920C0108954D
:1002900085EC8093BC0010920C0108951F920F9280
:1002A0000FB60F9211242F933F934F935F936F9349
:1002B0007F938F939F93AF93BF93EF93FF9380911F
:1002C000B90090E0887F90708036910509F4DFC016
:1002D00081369105E4F58832910509F47EC08932B2
:1002E0009105C4F48031910509F472C08131910502
:1002F00044F4009709F434C18830910509F03BC1FA
:1003000067C08831910509F468C08032910509F011
:1003100032C17EC08034910509F4A0C081349105BA
:100320004CF48033910509F47EC08833910509F0BF
:1003300022C184C08035910509F484C088359105B7
:1003400009F491C08834910509F015C198C0883925
:10035000910509F4FDC089399105ECF488379105C0
:1003600009F495C0893791054CF48836910509F454
:100370008EC08037910509F0FEC089C0883891058C
:1003800009F4E6C08039910509F487C080389105E9
:1003900009F0F1C082C0803B910509F4B0C0813BF7
:1003A00091054CF4803A910509F489C0883A910589
:1003B00009F0E1C0A4C0803C910509F4CDC0883C9F
:1003C000910509F4C9C0883B910509F0D4C0ACC0BF
:1003D00080910D018093BB00B9C090913201809152
:1003E0003301981768F480913201E82FF0E0EE5E57
:1003F000FE4F90819093BB008F5F80933201A6C027
:1004000085ED8093BC008091BC0084FDFCCFB1C021
:1004100080E28093770185ED8093BC008091BC00E1
:1004200084FDFCCFA6C080E38093770185ED8093A7
:10043000BC008091BC0084FDFCCF9BC088E380930E
:1004400077018AC0809132019091BB00E82FF0E0E3
:10045000EE5EFE4F90838F5F809332019091320168
:100460008091330171C0809132019091BB00E82FDF
:10047000F0E0EE5EFE4F90838F5F8093320185ED5A
:100480008093BC008091BC0084FDFCCF72C083E0EF
:1004900080930C011092760159C0809176018032D0
:1004A00008F056C0809176019091BB00E82FF0E0F3
:1004B000EA5AFE4F90838F5F8093760147C0809108
:1004C0007601803230F4E0917601F0E0EA5AFE4F96
:1004D000108285ED8093BC008091BC0084FDFCCF30
:1004E00010920C0160917601E0911001F0911101E0
:1004F00086E591E070E00995109276012DC084E0C8
:1005000080930C011092540110925501E0910E015C
:10051000F0910F01099580915501882329F481E01C
:10052000809355011092340180915401E82FF0E03E
:10053000EC5CFE4F90819093BB008F5F80935401E1
:100540009091540180915501981710F485EC01C0E9
:1005500085E88093BC000FC085EC8093BC0009C087
:100560001092770185ED8093BC008091BC0084FDE2
:10057000FCCF10920C01FF91EF91BF91AF919F9131
:100580008F917F916F915F914F913F912F910F903C
:100590000FBE0F901F90189591E090930B012FE6DE
:1005A0002093080180939A019093090190930A0186
:1005B0000E9426018FE661E00E94D9002091070188
:1005C0009091060180E008C09217F0F7E92FF0E063
:1005D000E658FE4F80819F5F2917B1F720930601EF
:1005E000089591E090930B019FE69093080180930A
:1005F0009A0160939B0182E08093090180930A0134
:100600000E94260108951BB81AB815B814B80895A9
:100610001BB815B8382F36953695369587708317E1
:1006200008F08F5F41E050E0BA0102C0660F771F0B
:100630003A95E2F7362FBA0102C0660F771F8A9506
:10064000E2F7262F662319F481E091E002C080E0F2
:1006500090E0332311F480E091E094B9320F3AB97D
:100660002BB985B9089580E00E94CC02282F2695E9
:10067000269526952E70922F990F990F920F8F70B5
:10068000980F9093020181E00E94CC02282F2695BA
:10069000269526952E70922F990F990F920F8F7095
:1006A000980F9093010182E00E94CC02282F26959A
:1006B000269526952670922F990F990F920F8F707D
:1006C000980F9093000185E280930201109201013E
:1006D00088E08093000108950F931F93182F042F33
:1006E000809100016CE00E942705892F845C0E94A4
:1006F000080380E090E0212F30E0F9013197F1F715
:1007000001968A309105C9F71BB81AB815B814B804
:1007100020E030E085E690E0811B9109FC013197F3
:10072000F1F72F5F3F4F2A303105C1F78091020169
:100730000E94080380E090E0202F30E0F90131971B
:10074000F1F701968A309105C9F71BB81AB815B8A8
:1007500014B820E030E085E690E0801B9109FC01B0
:100760003197F1F72F5F3F4F2A303105C1F71F91C5
:100770000F9108951F920F920FB60F9211248F932D
:10078000309920C080910401882311F410927801DF
:10079000809104018A3F78F5809104018F5F8093F6
:1007A000040180910401853029F4809178018160F1
:1007B00080937801809104018431E9F4809178017B
:1007C000826017C0109204018091780180FF05C0FB
:1007D000809178018460809378018091780181FF15
:1007E00005C08091780188608093780180917801BC
:1007F0008C7080937801319920C080910501882305
:1008000011F410927901809105018A3F78F5809169
:1008100005018F5F8093050180910501853029F4E2
:100820008091790181608093790180910501843103
:10083000E9F480917901826017C0109205018091DE
:10084000790180FF05C080917901846080937901EE
:100850008091790181FF05C0809179018860809342
:100860007901809179018C70809379018F910F903B
:100870000FBE0F901F9018951F93CF93DF9385B7EE
:10088000806185BF409A419A85B5856085BD80911C
:100890006E00816080936E0078941BB81AB815B80A
:1008A00014B80E9499001CE38091780183FF0DC069
:1008B0001092780180910201882311F410930201B3
:1008C000809102018150809302018091780182FF22
:1008D00010C0809178018B7F809378018091020114
:1008E0008F5F80930201809102018C3310F010928F
:1008F00002018091790183FF0DC0109279018091EE
:100900000101882311F410930101809101018150AC
:10091000809301018091790182FF10C0809179015B
:100920008B7F80937901809101018F5F809301011A
:10093000809101018C3310F0109201010E94330369
:10094000C0E0D0E08FE56FE54FE50E946C03219693
:10095000C436D105B9F7A8CF8F929F92AF92BF92BC
:10096000CF92DF92EF92FF920F931F93CF93DF937B
:1009700088248A94AEEF9A2EFDEFAF2EEBEFBE2EB9
:1009800077EFC72E6FEED62E5FEDE52E4FEBF42EF0
:100990000FE71BB81AB815B814B8C0E0D0E010C003
:1009A000812F0E94080387EE93E00197F1F700C0C2
:1009B00000001F5F1834A1F72196C233D10511F052
:1009C00010E0EECF1BB81AB815B814B88AB880E09A
:1009D00090E09BB8E7EEF3E03197F1F700C000003C
:1009E000ABB8E7EEF3E03197F1F700C00000BBB819
:1009F000E7EEF3E03197F1F700C00000CBB8E7EE87
:100A0000F3E03197F1F700C00000DBB8E7EEF3E068
:100A10003197F1F700C00000EBB8E7EEF3E0319753
:100A2000F1F700C00000FBB8E7EEF3E03197F1F713
:100A300000C000000BB9E7EEF3E03197F1F700C01A
:100A400000000196F1E0843F9F0719F6A2CF991BA1
:100A500079E004C0991F961708F0961B881F7A95B5
:0A0A6000C9F780950895F894FFCFC0
:040A6A00010B160066
:00000001FF
